:100000000C940A090C9426090C9426090C942609D0
:100010000C9426090C9426090C9426090C942609A4
:100020000C9426090C9426090C9436100C9490100C
:100030000C9426090C9426090C9426090C94260984
:100040000C9426090C9426090C9426090C94260974
:100050000C9426090C9426090C9426090C94260964
:100060000C9426090C9426090C9426090C94260954
:100070000C9426090C9426090C9426090C94260944
:100080000C9426090C9426090C9426090C94260934
:100090000C9426090C9426090C9426090C94260924
:1000A0000C9426090C9426090C9426090000AD0E28
:1000B000AD0EAD0EAD0EAD0EAD0EAD0EAD0EAD0E68
:1000C000AD0EAD0EAD0E0000AD0EAD0EAD0EAD0E13
:1000D000AD0E0000000000000000AD0EAD0EAD0E34
:1000E000AD0EAD0E670FAD0EAD0EAD0EAD0EAD0E7D
:1000F000020F020FAD0EAD0EAD0EAD0EAD0E670FC1
:10010000AD0EAD0EAD0EAD0EAD0EAD0E000000008D
:10011000AD0EAD0EAD0EAD0EAD0EAD0EAD0EAD0E07
:10012000AD0EAD0EAD0EAD0E0000AD0EAD0EAD0EB2
:10013000AD0EAD0EAD0EAD0EAD0EAD0EAD0EAD0EE7
:10014000AD0EAD0EAD0E0000AD0EAD0EAD0EAD0E92
:10015000AD0EAD0E0000EA0EEA0EEA0EEA0EEA0E51
:10016000EA0EEA0EEA0EEA0EEA0EEA0EEA0E0000C7
:10017000EA0EEA0EEA0EEA0EEA0EEA0EEA0EEA0EBF
:10018000EA0EEA0EEA0EEA0EEA0EEA0EEA0EAD0EEC
:10019000AD0EAD0EAD0E620F060F060F620FAD0E67
:1001A000AD0EAD0EAD0EAD0EEA0EAD0EAD0EAD0E3A
:1001B000AD0E620F00000000AD0EAD0E620F620FBB
:1001C000620FAD0EEA0E620F620FAD0EAD0E0000B3
:1001D0000000EA0E0000AD0E620F620FAD0EAD0E14
:1001E0000000AD0EAD0EAD0EAD0EAD0EAD0EAD0EF2
:1001F000AD0EAD0EAD0EAD0EAD0EAD0E000000009D
:1002000000000000000000000000000000000000EE
:1002100000000000000000000000000000000000DE
:1002200000000000000000000000000000000000CE
:1002300000000000000000000000000000000000BE
:1002400000000000000000000000000000000000AE
:10025000000000000000000000000000000000009E
:10026000000000000000000000000000000000008E
:10027000000000000000000000000000000000007E
:10028000000000000000000000000000000000006E
:10029000000000000000000000000000000000005E
:1002A000000000000000EA0EEA0EEA0EEA0EEA0E76
:1002B000EA0EEA0EEA0EEA0EAD0EEA0EEA0E0000B3
:1002C000EA0EAD0EEA0EEA0EEA0EEA0EEA0EEA0EAB
:1002D000EA0EEA0EEA0EAD0EAD0EEA0EEA0EEA0ED8
:1002E000EA0EEA0EEA0EEA0EEA0EEA0EEA0EAD0E8B
:1002F000AD0EAD0EAD0EEA0EEA0EEA0EEA0EEA0EF5
:10030000EA0EEA0E00000000EA0EAD0EAD0EAD0ED4
:10031000AD0EEA0EEA0EEA0EEA0EEA0EEA0EEA0E5A
:10032000EA0EEA0EEA0EAD0EAD0EAD0EAD0EEA0E01
:10033000EA0EEA0EEA0EEA0EEA0EEA0EEA0E0000F5
:10034000EA0E0000AD0EAD0EAD0EEA0E000000008C
:10035000000000000000040F060F180F1A0F000025
:10036000000000000000000000000000000000008D
:100370000000280F00000000000000000000000046
:10038000000000000000000000000000000F020F4D
:1003900000000000000000000000140F160FD90F2D
:1003A00000000000EA0E240F260F000000000000ED
:1003B00000000000100F120FBB0F00000000C40E61
:1003C000200F220F00000000000000000C0F0E0F95
:1003D000670F000000000000AD0E1C0F1E0F000094
:1003E000000000000000080F0A0F000000000000DD
:1003F00000000000000000000000000000000000FD
:1004000000000000000000000000000000000000EC
:1004100000000000000000000000000000000000DC
:1004200000000000000000000000000000000000CC
:100730000000000000000000000000000000AD0EFE
:10074000AD0EAD0EAD0EAD0EAD0EAD0EAD0EAD0ED1
:10075000AD0EAD0EAD0E0000AD0EAD0EAD0EAD0E7C
:10076000AD0E0000000000000000AD0EAD0EAD0E9D
:10077000AD0EAD0E670FAD0EAD0EAD0EAD0EAD0EE6
:10078000000F000FAD0EAD0EAD0EAD0EAD0E670F2E
:10079000AD0EAD0EAD0EAD0EAD0EAD0E00000000F7
:1007A000AD0EAD0EAD0EAD0EAD0EAD0EAD0EAD0E71
:1007B000AD0EAD0EAD0EAD0E000FAD0EAD0EAD0E0D
:1007C000AD0EAD0EAD0EAD0EAD0EAD0EAD0EAD0E51
:1007D000AD0EAD0EAD0EBB0FAD0EAD0EAD0EAD0E32
:1007E000AD0EAD0E0000EA0EEA0EEA0EEA0EEA0EBB
:1007F000EA0EEA0EEA0EEA0EEA0EEA0EEA0E000031
:10080000EA0EEA0EEA0EEA0EEA0EEA0EEA0EEA0E28
:10081000EA0EEA0EEA0EEA0EEA0EEA0EEA0EAD0E55
:10082000AD0EAD0EAD0E620F040F040F620FAD0ED4
:10083000AD0EAD0EAD0EAD0EEA0EAD0EAD0EAD0EA3
:10084000AD0E620F00000000AD0EAD0E620F620F24
:10085000620FAD0EEA0E620F620FAD0EAD0E00001C
:10086000020FEA0E0000AD0E620F620FAD0EAD0E6C
:100870000000AD0EAD0EAD0EAD0EAD0EAD0EAD0E5B
:10088000AD0EAD0EAD0EAD0EAD0EAD0E0000000006
:100890000000000000000000000000000000000058
:1008A0000000000000000000000000000000000048
:1008B0000000000000000000000000000000000038
:1008C0000000000000000000000000000000000028
:1008D0000000000000000000000000000000000018
:1008E0000000000000000000000000000000000008
:1008F00000000000000000000000000000000000F8
:1009000000000000000000000000000000000000E7
:100910000000000000000000280F000000000000A0
:1009200000000000000000000000000000000000C7
:10093000000000000000EA0EEA0EEA0EEA0EEA0EDF
:10094000EA0EEA0EEA0EEA0EAD0EEA0EEA0E00001C
:10095000EA0EAD0EEA0EEA0EEA0EEA0EEA0EEA0E14
:10096000EA0EEA0EEA0EAD0EAD0EEA0EEA0EEA0E41
:10097000EA0EEA0EEA0EEA0EEA0EEA0EEA0EAD0EF4
:10098000AD0EAD0EAD0EEA0EEA0EEA0EEA0EEA0E5E
:10099000EA0EEA0E00000000EA0EAD0EAD0EAD0E3E
:1009A000AD0EEA0EEA0EEA0EEA0EEA0EEA0EEA0EC4
:1009B000EA0EEA0EEA0EAD0EAD0EAD0EAD0EEA0E6B
:1009C000EA0EEA0EEA0EEA0EEA0EEA0EEA0ED90F77
:1009D000EA0ED90FAD0EAD0EAD0EEA0E000000000E
:1009E0000000000000000000000000000000000007
:1009F00000000000000000000000000000000000F7
:100A000000000000000000000000000000000000E6
:100A100000000000000000000000000000000000D6
:100DC000000000000000000000000000004D4C2A60
:100DD0004AE0E2E6E44B2C284E00E33531504F0068
:100DE0000000005051524FE7E11D1B06190501019B
:100DF0001110363738E52B041607090A00000B0DD1
:100E00000E0F333431141A081517012F1C180C1249
:100E100013302E1E1F202122290323242526272DAF
:100E200000000000000000000000000000000000C2
:100E3000000000000000000000000000005E5F6095
:100E4000612E0202255A5B5C5D7F0033382D6233D0
:100E50000000315926272E81002F302F300001004D
:100E6000002D3637B480003A3B3C3D3E44453F4080
:100E70004142436600000000000000000000000046
:100E80000000000000000000000000000000000062
:100E90000000000000000000000000000000000052
:100EA0000000000000000000000000000000000042
:100EB0000000000000000000000000000000000032
:100EC0000000000000000000000000000000000022
:100ED0000000620000000049000000000000000067
:100EE00000375800000000000000000000595A5B65
:100EF00058000000000000000000005C5D5E57002C
:100F00000000000000000000005F6061560000006B
:100F100000000000000300036754550000000000BB
:100F200000000000000000000000000000000000C1
:100F300000000000000000000000000000000000B1
:100F400000000000000000000000000000000000A1
:100F50000000000000000000000000000000000091
:100F60000000000000000000000000000000000081
:100F70000000000000000000000000000000000071
:100F80000000000000000000000000000000000061
:100F90000000000000000000000000000000000051
:100FA0000000000000000000000000000000000041
:100FB0000000000000000000000000000000000031
:100FC0000000000000000000000000000000000021
:100FD0000000000000000000000000000000000011
:100FE0000000000000000000000000000000000001
:100FF00000000000000000000000000000000000F1
:1010000000000000000000000000000000000000E0
:1010100000000000000000000000000000000000D0
:1010200000000000000000000000000000000000C0
:1010300000000000000000000000000000000000B0
:1010400000000000000000000000000000000000A0
:101050000000000000000000000000000000000090
:101060000000000000000000000000000000000080
:101070000000000000000000000000000000000070
:101080000000000000000000000000000000000060
:101090000000000000000000000000000000000050
:1010A0000000000000000000000000000000000040
:1010B0000000000000000000000000000000000030
:1010C0000000000000000000000000000000000020
:1010D0000000000000000000000000000000000010
:1010E0000000000000000000000000000000000000
:1010F00000000000000000000000000000000000F0
:1011000000000000000000000000000000000000DF
:1011100000000000000100004B1112000200005D01
:101120001122002200007F113F002100006F1109F1
:1011300000030000BE110401030904C211180203D8
:101140000904DC1136000001C10600120100020092
:10115000000020501D286000010102000109022248
:1011600000010100C032090400000103010100096F
:101170002111010001223F0007058303080001053A
:10118000010906A10175019508050719E029E71570
:1011900000250181029501750881039505750105FA
:1011A00008190129059102950175039103950675AA
:1011B00008150025680507190029688100C0040387
:1011C0000904180375006E00730070006500630069
:1011D0006900660069006500640000003603450090
:1011E000720067006F0044006F0078002000650007
:1011F000720067006F006E006F006D006900630091
:1012000020006B006500790062006F0061007200D1
:101210006400000011241FBECFEFDAE0DEBFCDBFB7
:1012200011E0A0E0B1E0EEEEF3E202C005900D9215
:10123000AA31B107D9F712E0AAE1B1E001C01D92CD
:10124000AA36B107E1F743D00C94F5110C940000D5
:10125000209166028091690290913C02E0913B02EC
:10126000222381F02EE0E29FF001112424E5929FD9
:10127000E00DF11D1124E80FF11DEE0FFF1FE45CDE
:10128000F84F0FC02EE0E29FF001112424E5929F59
:10129000E00DF11D1124E80FF11DEE0FFF1FE455C5
:1012A000FF4F85919491FC01009709F009940895EE
:1012B000E0911A01E81748F0F0E0E81BF109EE0FA1
:1012C000FF1FE35CFD4F8081089580E0089522D1E7
:1012D0008CE090E0909389008093880090938B003D
:1012E00080938A0090938D0080938C00259A269A93
:1012F000279A6AD680D68823E9F38FE790E0909307
:101300008900809388002FE732E440E1215030408B
:101310004040E1F700C0000090938B0080938A006A
:101320002FE732E440E1215030404040E1F700C077
:10133000000090938D0080938C002FE732E440E111
:10134000215030404040E1F700C000002598269829
:101350002798909389008093880090938B008093C6
:101360008A0090938D0080938C003EE0F32E809154
:1013700014019091150120911601309117013093BD
:101380001501209314019093170180931601CED07C
:101390001092E6013FC01092670233C0E09116013F
:1013A000F0911701F19EC0011124800F911DE80FEB
:1013B000F91F208120936602E0911401F09115013C
:1013C000E80FF91F3081309365022317A9F0EC0173
:1013D000C951DE4F222331F080E06ADF80933C0266
:1013E000888303C0888180933C0210933B02009362
:1013F0006902109268022CDF809167028F5F8093F0
:101400006702009167021091E6010E3038F21F5F0B
:101410001093E6018091E601863008F4BCCFEED54A
:101420008FE19EE40197F1F700C000008091DB019D
:1014300080FF02C0259A01C025988091DB0181FFC1
:1014400002C0269A01C026988091DB0182FF02C06B
:10145000279A01C027988091DB018091DB0187CF1B
:10146000982FE1E0F1E021E030E0822F419141113D
:1014700012C0F901E050FF4F31E03083E0911A01D2
:10148000EF5FE0931A01F0E0EE0FFF1FE35CFD4F0A
:101490009083218308952F5F3F4F2431310529F731
:1014A00080E00895CF93DF9320911A0191E0C82F37
:1014B000D0E0C050DF4F27C0E92FF0E0EE0FFF1F54
:1014C000E35CFD4F318138131DC00FC0DF01AA0F4F
:1014D000BB1FA15CBD4F3C91EE0FFF1FE35CFD4FB6
:1014E000308311963C9131839F5FE92FF0E0921396
:1014F000EDCFEE0FFF1FE35CFD4F108211821882CB
:10150000292F21509F5F2917B8F620931A01DF91E8
:10151000CF910895C6D0811105C01AD0882321F03B
:1015200082E0089581E0089580E00895CF93DF93ED
:10153000EC0180D1811106C0CE0135D0882321F085
:1015400082E003C081E001C080E0DF91CF91089587
:10155000CF937AD380E497D3C82F811120C080E045
:1015600092D380E890D38FEF8ED385D36DD380E470
:101570008AD3C82F811113C08CE085D380E883D330
:101580008FEF81D378D360D380E47DD3C82F8111CE
:1015900006C084E178D38FEF76D38FEF74D36BD30B
:1015A0008C2FCF9108959F92AF92BF92CF92DF92EE
:1015B000EF92FF920F931F93CF93DF931F92CDB7BC
:1015C000DEB77C01C5DF982E882391F020E030E063
:1015D000F701E20FF31F108211821282138214822C
:1015E00015821682225F3F4F2435310589F74BC0A3
:1015F00000E010E0CC24C394D12C26D380E443D364
:1016000082E141D3C601002E01C0880F0A94EAF797
:10161000809539D330D318D380E435D383E133D3E5
:1016200013D381E430D3CE0101964BD324D3A981C7
:10163000B0E040E050E025E030E05701A00EB11EE0
:10164000F501E40FF51FBD01022E02C075956795E7
:101650000A94E2F760956170608321503109425F1E
:101660005F4F2F3F8FEF380759F70F5F1F4F07303E
:10167000110509F0C2CFE8D280E405D382E103D39B
:101680008FEF01D3F8D2892D0F90DF91CF911F9169
:101690000F91FF90EF90DF90CF90BF90AF909F9011
:1016A0000895E1E6F0E080E88083108256985E9825
:1016B00024982C9825982698279889EA809380006A
:1016C00089E080938100B7D23F9885E08A95F1F751
:1016D0000000579885E08A95F1F70000549885E05E
:1016E0008A95F1F70000559885E08A95F1F700009A
:1016F0006E9885E08A95F1F70000479A85E08A9513
:10170000F1F700005F9A85E08A95F1F700005C9A96
:1017100085E08A95F1F700005D9A85E08A95F1F7FA
:101720000000769A85E08A95F1F70000879885E0B9
:101730008A95F1F70000869885E08A95F1F7000018
:10174000859885E08A95F1F70000849885E08A9570
:10175000F1F70000819885E08A95F1F70000809804
:1017600085E08A95F1F70000209885E08A95F1F7E9
:101770000000219885E08A95F1F70000229885E025
:101780008A95F1F70000239885E08A95F1F700002B
:10179000529885E08A95F1F70000539885E08A9584
:1017A000F1F700003E9885E08A95F1F700008F9AE6
:1017B00085E08A95F1F700008E9A85E08A95F1F729
:1017C00000008D9A85E08A95F1F700008C9A85E0FB
:1017D0008A95F1F70000899A85E08A95F1F7000073
:1017E000889A85E08A95F1F70000289885E08A9527
:1017F000F1F70000299885E08A95F1F700002A9812
:1018000085E08A95F1F700002B9885E08A95F1F73D
:1018100000005A9885E08A95F1F700005B9885E012
:101820008A95F1F70000469885E08A95F1F7000067
:1018300080E00895CF93DF93FC01209A85E08A959C
:10184000F1F700008FB18095881F8827881F878354
:101850009FB181E096FB992790F99827958B9FB1CE
:1018600095FB992790F9982793A39FB19295917032
:10187000982791AB9FB196959170982797AF9FB19C
:10188000DF01AA5BBF4F9170982717969C9317971B
:10189000209895E09A95F1F70000219A95E09A95A5
:1018A000F1F700009FB19095991F9927991F908794
:1018B0009FB196FB992790F99827968B9FB195FB3E
:1018C000992790F9982794A39FB1929591709827A2
:1018D00092AB9FB1EF01C05CDF4F96959170982756
:1018E00098839FB19170982718969C931897219888
:1018F00095E09A95F1F70000229A95E09A95F1F714
:1019000000009FB19095991F9927991F91879FB1CA
:1019100096FB992790F99827978B9FB195FB99276C
:1019200090F9982795A39FB192959170982793ABC2
:101930009FB1EF01CF5BDF4F969591709827988309
:101940009FB19170982719969C931997229895E0CA
:101950009A95F1F70000239A95E09A95F1F7000027
:101960009FB19095991F9927991F92879FB196FBD8
:10197000992790F99827908F9FB195FB992790F917
:10198000982796A39FB192959170982794AB9FB199
:10199000EF01CE5BDF4F96959170982798839FB1AA
:1019A000917098271A969C931A97239895E09A9588
:1019B000F1F70000529A95E09A95F1F700009FB177
:1019C0009095991F9927991F93879FB196FB992707
:1019D00090F99827918F9FB195FB992790F99827B7
:1019E00097A39FB192959170982795AB9FB1EF0106
:1019F000CD5BDF4F96959170982798839FB191703A
:101A000098271B969C931B97529895E09A95F1F70F
:101A10000000539A95E09A95F1F700009FB19095D8
:101A2000991F9927991F94879FB196FB992790F941
:101A30009827928F9FB195FB992790F9982790A7A7
:101A40009FB192959170982796AB9FB1EF01CC5BB7
:101A5000DF4F96959170982798839FB19170982742
:101A60001C969C931C97539895E09A95F1F700006B
:101A70003E9A95E09A95F1F700009FB19095991FD5
:101A80009927991F95879FB196FB992790F99827D9
:101A9000938F9FB195FB992790F9982791A79FB1B4
:101AA00092959170982797AB9FB1EB5BFF4F9695FE
:101AB0009170982790839FB1917098271D969C9361
:101AC0003E9885E08A95F1F7000080E0DF91CF91A4
:101AD0000895662309F470C0633E59F138F4613EFD
:101AE000C1F0F8F4603E09F04CC009C0653E89F1D0
:101AF00040F1663EB1F1673E09F043C03AC09091B3
:101B0000E201882311F0916001C09E7F9093E20171
:101B100008959091E201882311F09260F7CF9D7FA4
:101B2000F5CF9091E201882311F09460EFCF9B7F75
:101B3000EDCF9091E201882311F09860E7CF977F75
:101B4000E5CF9091E201882311F09061DFCF9F7E75
:101B5000DDCF9091E201882311F09062D7CF9F7D75
:101B6000D5CF9091E201882311F09064CFCF9F7B75
:101B7000CDCF9091E201882311F09068C7CF9F7775
:101B8000C5CFECEDF1E020E030E09081882339F022
:101B900091110CC0F901E452FE4F60830895961331
:101BA00005C0F901E452FE4F108208952F5F3F4FA8
:101BB00031962630310549F70895833ED9F030F447
:101BC000813E81F098F4803E49F508C0853ED1F011
:101BD000A8F0863ED9F0873E09F51CC09091E2013D
:101BE00090FD27C09091E20191FD23C09091E20108
:101BF00092FD1FC09091E20193FD1BC09091E20104
:101C000094FD17C09091E20195FD13C09091E201FF
:101C100096FD0FC09091E20197FD0BC0ECEDF1E055
:101C20009191981731F091E0E23EF907C9F780E011
:101C3000089581E00895E9EBF0E080818C7F808356
:101C400088E48093B800089584EA8093BC00809172
:101C5000BC0087FFFCCF8091B900887F883049F0B5
:101C60008091B900887F803121F08091B900887F10
:101C7000089580E0089584E98093BC008091BC00C1
:101C800084FDFCCF08958093BB0084E88093BC0062
:101C90008091BC0087FFFCCF8091B900887F88319C
:101CA00071F08091B900887F883249F08091B90045
:101CB000887F803421F08091B900887F089580E08A
:101CC000089524EC2093BC002091BC0027FFFCCF9A
:101CD0002091BB00FC0120838091B900887F803572
:101CE00021F08091B900887F089580E00895CF9316
:101CF000DF93C82FD0E0CC0FDD1FCD53DE4F88819E
:101D0000D1DB19821882DF91CF9108951F93CF9371
:101D1000DF939091690220913C02E0913B023EE00A
:101D2000E39FF001112434E5239FE00DF11D112400
:101D3000E90FF11DE453F24F1491C82FD0E0CC0FFE
:101D4000DD1FCD53DE4F8881ADDB812F89DB88839A
:101D50001982DF91CF911F9108958091690290912E
:101D60003C02E0913B022EE0E29FF001112424E5C9
:101D7000929FE00DF11D1124E80FF11DE453F24F85
:101D8000649180916602A5CECF93DF931F92CDB769
:101D9000DEB78091690290913C02E0913B022EE017
:101DA000E29FF001112424E5929FE00DF11D112422
:101DB000E80FF11DE453F24F6491862F6983FDDE35
:101DC0006981882311F080E001C081E00F90DF91EC
:101DD000CF917FCE809168028F5F8093680268DA2E
:101DE00080933C0290916902E0913B022EE0E29FD9
:101DF000F0011124E90FF11DE951FE4F808328CA3B
:101E000081E084CF81E073CF82E080CF82E06FCF2A
:101E100083E07CCF83E06BCF84E078CF84E067CF32
:101E200085E074CF85E063CF86E070CF86E05FCF3A
:101E300087E06CCF87E05BCF88E068CF88E057CF42
:101E400089E064CF89E053CF8AE060CF8AE04FCF4A
:101E5000F89481E08093E00080E28093D800E9EC80
:101E6000F0E010828FE19EE40197F1F700C00000DE
:101E70001DBA109268001CBC10BE1FBA10927A00E6
:101E800010926E0010926F0010927100109272000A
:101E90001082ECEBF0E0108214B817B81AB81DB835
:101EA00010BA108215B818B81BB81EB811BA0C9425
:101EB000003F089563E881E00CDEA0D063E880E095
:101EC00008DE9CC061EE8091660203DE46CF809101
:101ED000690290913C02E0913B022EE0E29FF0010A
:101EE000112424E5929FE00DF11D1124E80FF11D4E
:101EF000E453F24F649180916602811105C0909184
:101F0000D70191509093D701E4DD8091D7018130C2
:101F100041F580916602882321F181EE4EDE8093A7
:101F2000D80185EE4ADE8093D90161EE80E0D1DDF3
:101F300065EE80E0CEDD69E381E0CBDD5FD069E373
:101F400080E0C7DD5BD08091D801882319F061EE75
:101F500081E0BFDD8091D901882319F065EE81E031
:101F6000B8DD80916602882329F08091D7018F5FC8
:101F70008093D7010895CF938091690290913C029C
:101F8000E0913B022EE0E29FF001112424E5929FB4
:101F9000E00DF11D1124E80FF11DE453F24FC4913F
:101FA0008091DA017FDA8C2F5BDA8093DA01CF91AE
:101FB00081CF8091DA0176DA1092DA017BCF8091BD
:101FC000E80080FFFCCF089581E08093D70080EA8D
:101FD0008093D80082E189BD09B400FEFDCF80E97D
:101FE0008093D8001092E0001092E3018CE080937F
:101FF000E200789408958091E30108958091E301CF
:10200000811102C08FEF08958FB7F89493E09093F9
:10201000E9009091E4009E5C23E03091E80035FDFA
:102020000EC08FBF8091E301882361F38091E400AB
:10203000891741F38FB7F8942093E900EECF909180
:10204000E2019093F1001092F100ECEDF1E091913A
:102050009093F10091E0E23EF907C9F79AE390937B
:10206000E8001092E4018FBF80E008951F920F9264
:102070000FB60F9211248F939F93EF93FF9380914C
:10208000E1001092E10083FF0FC01092E90091E09F
:102090009093EB001092EC0092E29093ED0098E0A8
:1020A0009093F0001092E30182FF31C08091E30130
:1020B000882369F190911801992349F18091E501F4
:1020C0008F5F8093E501837011F583E08093E900D1
:1020D0008091E80085FF1BC08091E4018F5F8093B1
:1020E000E401891314C01092E4018091E20180930D
:1020F000F1001092F100ECEDF1E081918093F1009C
:1021000081E0E23EF807C9F78AE38093E800FF9197
:10211000EF919F918F910F900FBE0F901F90189588
:102120001F920F920FB60F921124EF92FF920F930E
:102130001F932F933F934F935F936F937F938F934F
:102140009F93AF93BF93EF93FF93CF93DF931F9230
:10215000CDB7DEB71092E9008091E80083FF2AC175
:102160009091F1008091F1002091F1003091F10007
:10217000F32EE12CE22A2091F1003091F100132F8F
:1021800000E0022B6091F1007091F10022EF2093AA
:10219000E800863009F04DC047E084E191E1FC01A0
:1021A000259134912E153F0509F007C0FC013296A8
:1021B000259134912017310711F0079615C0FC01C5
:1021C0003496459154919A01FC0136968491572F8B
:1021D00040E0462B4F3F510519F010F04FEF50E013
:1021E000481728F4842F03C04150C9F6E3C07EEF9E
:1021F0009091E800492F4570D9F392FDDEC0982FE9
:10220000813208F090E2A901692F07C0FA014F5FFF
:102210005F4FE491E093F10061506111F7CF290F16
:10222000311D891B7093E8008111E2CF903201F3D8
:10223000C4C0853049F48EEF8093E800C0DE689416
:10224000E7F8E092E300B9C0893041F591116DC023
:10225000E092E3018EEF8093E80041E085E491E1B4
:1022600001C0C9014093E9009C012F5F3F4FFC0171
:1022700054915093EB00552361F0F9012491209380
:10228000EC009C012D5F3F4FFC01329684918093BE
:10229000ED004F5F453029F78EE142C0883039F4B8
:1022A000903809F042C08BDE8091E30161C081115A
:1022B00015C0998384DE9981923851F40093E90026
:1022C0008091EB0085FB882780F91092E90001C01E
:1022D00080E08093F1001092F10063C0813011F032
:1022E000833019F5923009F5EF2809F063C00F77B4
:1022F0001127902F9150943008F05CC09EEF90937E
:10230000E8000093E900833009F454C089E1809328
:10231000EB0081E090E0002E01C0880F0A94EAF7FC
:102320008093EA001092EA0048C0012B09F042C0F5
:10233000913A09F5813089F442DE8091E20180937F
:10234000F1001092F100ECEDF1E081918093F10049
:1023500031E0E23EF307C9F724C0823021F42FDEDA
:102360008091180105C0833029F529DE809119017B
:102370008093F10016C09132E9F4893061F48091C4
:10238000E80082FFFCCF8091F1008093DB018BEFAE
:102390008093E80006C08A3041F4F0921801109250
:1023A000E4018EEF8093E80008C08B3019F4E092CE
:1023B0001901F7CF81E28093EB000F90DF91CF916D
:1023C000FF91EF91BF91AF919F918F917F916F910D
:1023D0005F914F913F912F911F910F91FF90EF903F
:0E23E0000F900FBE0F901F901895F894FFCF2E
:1023EE0001000000000000000000000000000000DE
:0A23FE00000000001B016F017D01CB
:00000001FF
